{
  "contractName": "Counter",
  "abi": [
    {
      "inputs": [],
      "stateMutability": "nonpayable",
      "type": "constructor"
    },
    {
      "inputs": [],
      "name": "incremnetCounter",
      "outputs": [],
      "stateMutability": "nonpayable",
      "type": "function"
    },
    {
      "inputs": [],
      "name": "getCounter",
      "outputs": [
        {
          "internalType": "uint256",
          "name": "",
          "type": "uint256"
        }
      ],
      "stateMutability": "view",
      "type": "function",
      "constant": true
    }
  ],
  "bytecode": "0x608060405234801561001057600080fd5b5060008081905550610184806100276000396000f3fe608060405234801561001057600080fd5b5060043610610053576000357c0100000000000000000000000000000000000000000000000000000000900480635d03b35b146100585780638ada066e14610062575b600080fd5b610060610080565b005b61006a610099565b60405161007791906100b1565b60405180910390f35b600080815480929190610092906100d6565b9190505550565b60008054905090565b6100ab816100cc565b82525050565b60006020820190506100c660008301846100a2565b92915050565b6000819050919050565b60006100e1826100cc565b91507fffffffffffffffffffffffffffffffffffffffffffffffffffffffffffffffff8214156101145761011361011f565b5b600182019050919050565b7f4e487b7100000000000000000000000000000000000000000000000000000000600052601160045260246000fdfea26469706673582212206af15de252eb2a23eaee885511e3bdad9718c222b1f726b6957287c9a5c42d6c64736f6c63430008000033",
  "immutableReferences": {},
  "source": "// SPDX-License-Identifier: MIT\r\npragma solidity ^0.8.0;\r\n\r\ncontract Counter {\r\n    uint counter;\r\n    \r\n    constructor(){\r\n        counter = 0;\r\n    }\r\n\r\n    function incremnetCounter() public {\r\n        counter++;\r\n    }\r\n    \r\n    function getCounter() public view returns(uint){\r\n        return counter;\r\n    }\r\n}",
  "sourcePath": "D:/SagarWorkspace/Polygon/contracts/Counter.sol",
  "compiler": {
    "name": "solc",
    "version": "0.8.0+commit.c7dfd78e.Emscripten.clang"
  },
  "schemaVersion": "3.2.3",
  "updatedAt": "2021-09-16T05:34:15.469Z",
  "networkType": "ethereum",
  "devdoc": {
    "kind": "dev",
    "methods": {},
    "version": 1
  },
  "userdoc": {
    "kind": "user",
    "methods": {},
    "version": 1
  }
}